{
  "contractName": "Ticket",
  "abi": [
    {
      "inputs": [
        {
          "internalType": "address",
          "name": "_eventAddress",
          "type": "address"
        }
      ],
      "stateMutability": "nonpayable",
      "type": "constructor"
    },
    {
      "anonymous": false,
      "inputs": [
        {
          "indexed": true,
          "internalType": "address",
          "name": "owner",
          "type": "address"
        },
        {
          "indexed": true,
          "internalType": "address",
          "name": "approved",
          "type": "address"
        },
        {
          "indexed": true,
          "internalType": "uint256",
          "name": "tokenId",
          "type": "uint256"
        }
      ],
      "name": "Approval",
      "type": "event"
    },
    {
      "anonymous": false,
      "inputs": [
        {
          "indexed": true,
          "internalType": "address",
          "name": "owner",
          "type": "address"
        },
        {
          "indexed": true,
          "internalType": "address",
          "name": "operator",
          "type": "address"
        },
        {
          "indexed": false,
          "internalType": "bool",
          "name": "approved",
          "type": "bool"
        }
      ],
      "name": "ApprovalForAll",
      "type": "event"
    },
    {
      "anonymous": false,
      "inputs": [
        {
          "indexed": true,
          "internalType": "address",
          "name": "from",
          "type": "address"
        },
        {
          "indexed": true,
          "internalType": "address",
          "name": "to",
          "type": "address"
        },
        {
          "indexed": true,
          "internalType": "uint256",
          "name": "tokenId",
          "type": "uint256"
        }
      ],
      "name": "Transfer",
      "type": "event"
    },
    {
      "inputs": [
        {
          "internalType": "address",
          "name": "to",
          "type": "address"
        },
        {
          "internalType": "uint256",
          "name": "tokenId",
          "type": "uint256"
        }
      ],
      "name": "approve",
      "outputs": [],
      "stateMutability": "nonpayable",
      "type": "function"
    },
    {
      "inputs": [
        {
          "internalType": "address",
          "name": "owner",
          "type": "address"
        }
      ],
      "name": "balanceOf",
      "outputs": [
        {
          "internalType": "uint256",
          "name": "",
          "type": "uint256"
        }
      ],
      "stateMutability": "view",
      "type": "function"
    },
    {
      "inputs": [],
      "name": "eventAddress",
      "outputs": [
        {
          "internalType": "address",
          "name": "",
          "type": "address"
        }
      ],
      "stateMutability": "view",
      "type": "function"
    },
    {
      "inputs": [
        {
          "internalType": "uint256",
          "name": "tokenId",
          "type": "uint256"
        }
      ],
      "name": "getApproved",
      "outputs": [
        {
          "internalType": "address",
          "name": "",
          "type": "address"
        }
      ],
      "stateMutability": "view",
      "type": "function"
    },
    {
      "inputs": [
        {
          "internalType": "address",
          "name": "owner",
          "type": "address"
        },
        {
          "internalType": "address",
          "name": "operator",
          "type": "address"
        }
      ],
      "name": "isApprovedForAll",
      "outputs": [
        {
          "internalType": "bool",
          "name": "",
          "type": "bool"
        }
      ],
      "stateMutability": "view",
      "type": "function"
    },
    {
      "inputs": [],
      "name": "name",
      "outputs": [
        {
          "internalType": "string",
          "name": "",
          "type": "string"
        }
      ],
      "stateMutability": "view",
      "type": "function"
    },
    {
      "inputs": [
        {
          "internalType": "uint256",
          "name": "tokenId",
          "type": "uint256"
        }
      ],
      "name": "ownerOf",
      "outputs": [
        {
          "internalType": "address",
          "name": "",
          "type": "address"
        }
      ],
      "stateMutability": "view",
      "type": "function"
    },
    {
      "inputs": [
        {
          "internalType": "address",
          "name": "from",
          "type": "address"
        },
        {
          "internalType": "address",
          "name": "to",
          "type": "address"
        },
        {
          "internalType": "uint256",
          "name": "tokenId",
          "type": "uint256"
        }
      ],
      "name": "safeTransferFrom",
      "outputs": [],
      "stateMutability": "nonpayable",
      "type": "function"
    },
    {
      "inputs": [
        {
          "internalType": "address",
          "name": "from",
          "type": "address"
        },
        {
          "internalType": "address",
          "name": "to",
          "type": "address"
        },
        {
          "internalType": "uint256",
          "name": "tokenId",
          "type": "uint256"
        },
        {
          "internalType": "bytes",
          "name": "data",
          "type": "bytes"
        }
      ],
      "name": "safeTransferFrom",
      "outputs": [],
      "stateMutability": "nonpayable",
      "type": "function"
    },
    {
      "inputs": [
        {
          "internalType": "address",
          "name": "operator",
          "type": "address"
        },
        {
          "internalType": "bool",
          "name": "approved",
          "type": "bool"
        }
      ],
      "name": "setApprovalForAll",
      "outputs": [],
      "stateMutability": "nonpayable",
      "type": "function"
    },
    {
      "inputs": [
        {
          "internalType": "bytes4",
          "name": "interfaceId",
          "type": "bytes4"
        }
      ],
      "name": "supportsInterface",
      "outputs": [
        {
          "internalType": "bool",
          "name": "",
          "type": "bool"
        }
      ],
      "stateMutability": "view",
      "type": "function"
    },
    {
      "inputs": [],
      "name": "symbol",
      "outputs": [
        {
          "internalType": "string",
          "name": "",
          "type": "string"
        }
      ],
      "stateMutability": "view",
      "type": "function"
    },
    {
      "inputs": [
        {
          "internalType": "uint256",
          "name": "tokenId",
          "type": "uint256"
        }
      ],
      "name": "tokenURI",
      "outputs": [
        {
          "internalType": "string",
          "name": "",
          "type": "string"
        }
      ],
      "stateMutability": "view",
      "type": "function"
    },
    {
      "inputs": [
        {
          "internalType": "address",
          "name": "from",
          "type": "address"
        },
        {
          "internalType": "address",
          "name": "to",
          "type": "address"
        },
        {
          "internalType": "uint256",
          "name": "tokenId",
          "type": "uint256"
        }
      ],
      "name": "transferFrom",
      "outputs": [],
      "stateMutability": "nonpayable",
      "type": "function"
    },
    {
      "inputs": [
        {
          "internalType": "address",
          "name": "buyer",
          "type": "address"
        },
        {
          "internalType": "uint256",
          "name": "eventId",
          "type": "uint256"
        }
      ],
      "name": "buy",
      "outputs": [
        {
          "internalType": "uint256",
          "name": "",
          "type": "uint256"
        }
      ],
      "stateMutability": "nonpayable",
      "type": "function"
    },
    {
      "inputs": [],
      "name": "getAllMyTickets",
      "outputs": [
        {
          "components": [
            {
              "internalType": "uint256",
              "name": "ticketId",
              "type": "uint256"
            },
            {
              "internalType": "uint256",
              "name": "eventId",
              "type": "uint256"
            },
            {
              "internalType": "bool",
              "name": "used",
              "type": "bool"
            }
          ],
          "internalType": "struct Ticket.TicketInfo[]",
          "name": "",
          "type": "tuple[]"
        }
      ],
      "stateMutability": "view",
      "type": "function"
    }
  ],
  "bytecode": "0x60806040523480156200001157600080fd5b506040516200312d3803806200312d83398181016040528101906200003791906200017b565b6040518060400160405280600681526020017f5469636b657400000000000000000000000000000000000000000000000000008152506040518060400160405280600381526020017f54434b00000000000000000000000000000000000000000000000000000000008152508160009081620000b4919062000427565b508060019081620000c6919062000427565b50505080600660006101000a81548173ffffffffffffffffffffffffffffffffffffffff021916908373ffffffffffffffffffffffffffffffffffffffff160217905550506200050e565b600080fd5b600073ffffffffffffffffffffffffffffffffffffffff82169050919050565b6000620001438262000116565b9050919050565b620001558162000136565b81146200016157600080fd5b50565b60008151905062000175816200014a565b92915050565b60006020828403121562000194576200019362000111565b5b6000620001a48482850162000164565b91505092915050565b600081519050919050565b7f4e487b7100000000000000000000000000000000000000000000000000000000600052604160045260246000fd5b7f4e487b7100000000000000000000000000000000000000000000000000000000600052602260045260246000fd5b600060028204905060018216806200022f57607f821691505b602082108103620002455762000244620001e7565b5b50919050565b60008190508160005260206000209050919050565b60006020601f8301049050919050565b600082821b905092915050565b600060088302620002af7fffffffffffffffffffffffffffffffffffffffffffffffffffffffffffffffff8262000270565b620002bb868362000270565b95508019841693508086168417925050509392505050565b6000819050919050565b6000819050919050565b60006200030862000302620002fc84620002d3565b620002dd565b620002d3565b9050919050565b6000819050919050565b6200032483620002e7565b6200033c62000333826200030f565b8484546200027d565b825550505050565b600090565b6200035362000344565b6200036081848462000319565b505050565b5b8181101562000388576200037c60008262000349565b60018101905062000366565b5050565b601f821115620003d757620003a1816200024b565b620003ac8462000260565b81016020851015620003bc578190505b620003d4620003cb8562000260565b83018262000365565b50505b505050565b600082821c905092915050565b6000620003fc60001984600802620003dc565b1980831691505092915050565b6000620004178383620003e9565b9150826002028217905092915050565b6200043282620001ad565b67ffffffffffffffff8111156200044e576200044d620001b8565b5b6200045a825462000216565b620004678282856200038c565b600060209050601f8311600181146200049f57600084156200048a578287015190505b62000496858262000409565b86555062000506565b601f198416620004af866200024b565b60005b82811015620004d957848901518255600182019150602085019450602081019050620004b2565b86831015620004f95784890151620004f5601f891682620003e9565b8355505b6001600288020188555050505b505050505050565b612c0f806200051e6000396000f3fe608060405234801561001057600080fd5b50600436106101005760003560e01c806395d89b4111610097578063c87b56dd11610066578063c87b56dd146102ab578063cce7ec13146102db578063e985e9c51461030b578063fad567791461033b57610100565b806395d89b4114610237578063a22cb46514610255578063b57c56aa14610271578063b88d4fde1461028f57610100565b806323b872dd116100d357806323b872dd1461019f57806342842e0e146101bb5780636352211e146101d757806370a082311461020757610100565b806301ffc9a71461010557806306fdde0314610135578063081812fc14610153578063095ea7b314610183575b600080fd5b61011f600480360381019061011a9190611c60565b610359565b60405161012c9190611ca8565b60405180910390f35b61013d61043b565b60405161014a9190611d53565b60405180910390f35b61016d60048036038101906101689190611dab565b6104cd565b60405161017a9190611e19565b60405180910390f35b61019d60048036038101906101989190611e60565b610513565b005b6101b960048036038101906101b49190611ea0565b61062a565b005b6101d560048036038101906101d09190611ea0565b61068a565b005b6101f160048036038101906101ec9190611dab565b6106aa565b6040516101fe9190611e19565b60405180910390f35b610221600480360381019061021c9190611ef3565b610730565b60405161022e9190611f2f565b60405180910390f35b61023f6107e7565b60405161024c9190611d53565b60405180910390f35b61026f600480360381019061026a9190611f76565b610879565b005b61027961088f565b60405161028691906120c5565b60405180910390f35b6102a960048036038101906102a4919061221c565b610a28565b005b6102c560048036038101906102c09190611dab565b610a8a565b6040516102d29190611d53565b60405180910390f35b6102f560048036038101906102f09190611e60565b610af2565b6040516103029190611f2f565b60405180910390f35b6103256004803603810190610320919061229f565b610c7e565b6040516103329190611ca8565b60405180910390f35b610343610d12565b6040516103509190611e19565b60405180910390f35b60007f80ac58cd000000000000000000000000000000000000000000000000000000007bffffffffffffffffffffffffffffffffffffffffffffffffffffffff1916827bffffffffffffffffffffffffffffffffffffffffffffffffffffffff1916148061042457507f5b5e139f000000000000000000000000000000000000000000000000000000007bffffffffffffffffffffffffffffffffffffffffffffffffffffffff1916827bffffffffffffffffffffffffffffffffffffffffffffffffffffffff1916145b80610434575061043382610d38565b5b9050919050565b60606000805461044a9061230e565b80601f01602080910402602001604051908101604052809291908181526020018280546104769061230e565b80156104c35780601f10610498576101008083540402835291602001916104c3565b820191906000526020600020905b8154815290600101906020018083116104a657829003601f168201915b5050505050905090565b60006104d882610da2565b6004600083815260200190815260200160002060009054906101000a900473ffffffffffffffffffffffffffffffffffffffff169050919050565b600061051e826106aa565b90508073ffffffffffffffffffffffffffffffffffffffff168373ffffffffffffffffffffffffffffffffffffffff160361058e576040517f08c379a0000000000000000000000000000000000000000000000000000000008152600401610585906123b1565b60405180910390fd5b8073ffffffffffffffffffffffffffffffffffffffff166105ad610ded565b73ffffffffffffffffffffffffffffffffffffffff1614806105dc57506105db816105d6610ded565b610c7e565b5b61061b576040517f08c379a000000000000000000000000000000000000000000000000000000000815260040161061290612443565b60405180910390fd5b6106258383610df5565b505050565b61063b610635610ded565b82610eae565b61067a576040517f08c379a0000000000000000000000000000000000000000000000000000000008152600401610671906124d5565b60405180910390fd5b610685838383610f43565b505050565b6106a583838360405180602001604052806000815250610a28565b505050565b6000806106b68361123c565b9050600073ffffffffffffffffffffffffffffffffffffffff168173ffffffffffffffffffffffffffffffffffffffff1603610727576040517f08c379a000000000000000000000000000000000000000000000000000000000815260040161071e90612541565b60405180910390fd5b80915050919050565b60008073ffffffffffffffffffffffffffffffffffffffff168273ffffffffffffffffffffffffffffffffffffffff16036107a0576040517f08c379a0000000000000000000000000000000000000000000000000000000008152600401610797906125d3565b60405180910390fd5b600360008373ffffffffffffffffffffffffffffffffffffffff1673ffffffffffffffffffffffffffffffffffffffff168152602001908152602001600020549050919050565b6060600180546107f69061230e565b80601f01602080910402602001604051908101604052809291908181526020018280546108229061230e565b801561086f5780601f106108445761010080835404028352916020019161086f565b820191906000526020600020905b81548152906001019060200180831161085257829003601f168201915b5050505050905090565b61088b610884610ded565b8383611279565b5050565b606080600960003373ffffffffffffffffffffffffffffffffffffffff1673ffffffffffffffffffffffffffffffffffffffff16815260200190815260200160002080548060200260200160405190810160405280929190818152602001828054801561091b57602002820191906000526020600020905b815481526020019060010190808311610907575b505050505090506000815167ffffffffffffffff81111561093f5761093e6120f1565b5b60405190808252806020026020018201604052801561097857816020015b610965611bd1565b81526020019060019003908161095d5790505b50905060005b8251811015610a1f576008600084838151811061099e5761099d6125f3565b5b6020026020010151815260200190815260200160002060405180606001604052908160008201548152602001600182015481526020016002820160009054906101000a900460ff161515151581525050828281518110610a0157610a006125f3565b5b60200260200101819052508080610a1790612651565b91505061097e565b50809250505090565b610a39610a33610ded565b83610eae565b610a78576040517f08c379a0000000000000000000000000000000000000000000000000000000008152600401610a6f906124d5565b60405180910390fd5b610a84848484846113e5565b50505050565b6060610a9582610da2565b6000610a9f611441565b90506000815111610abf5760405180602001604052806000815250610aea565b80610ac984611458565b604051602001610ada9291906126d5565b6040516020818303038152906040525b915050919050565b6000600660009054906101000a900473ffffffffffffffffffffffffffffffffffffffff1673ffffffffffffffffffffffffffffffffffffffff163373ffffffffffffffffffffffffffffffffffffffff1614610b84576040517f08c379a0000000000000000000000000000000000000000000000000000000008152600401610b7b90612745565b60405180910390fd5b6000610b906007611526565b9050610b9c8482611534565b610ba66007611751565b60405180606001604052808281526020018481526020016000151581525060086000838152602001908152602001600020600082015181600001556020820151816001015560408201518160020160006101000a81548160ff021916908315150217905550905050600960008573ffffffffffffffffffffffffffffffffffffffff1673ffffffffffffffffffffffffffffffffffffffff1681526020019081526020016000208190806001815401808255809150506001900390600052602060002001600090919091909150558091505092915050565b6000600560008473ffffffffffffffffffffffffffffffffffffffff1673ffffffffffffffffffffffffffffffffffffffff16815260200190815260200160002060008373ffffffffffffffffffffffffffffffffffffffff1673ffffffffffffffffffffffffffffffffffffffff16815260200190815260200160002060009054906101000a900460ff16905092915050565b600660009054906101000a900473ffffffffffffffffffffffffffffffffffffffff1681565b60007f01ffc9a7000000000000000000000000000000000000000000000000000000007bffffffffffffffffffffffffffffffffffffffffffffffffffffffff1916827bffffffffffffffffffffffffffffffffffffffffffffffffffffffff1916149050919050565b610dab81611767565b610dea576040517f08c379a0000000000000000000000000000000000000000000000000000000008152600401610de190612541565b60405180910390fd5b50565b600033905090565b816004600083815260200190815260200160002060006101000a81548173ffffffffffffffffffffffffffffffffffffffff021916908373ffffffffffffffffffffffffffffffffffffffff160217905550808273ffffffffffffffffffffffffffffffffffffffff16610e68836106aa565b73ffffffffffffffffffffffffffffffffffffffff167f8c5be1e5ebec7d5bd14f71427d1e84f3dd0314c0f7b2291e5b200ac8c7c3b92560405160405180910390a45050565b600080610eba836106aa565b90508073ffffffffffffffffffffffffffffffffffffffff168473ffffffffffffffffffffffffffffffffffffffff161480610efc5750610efb8185610c7e565b5b80610f3a57508373ffffffffffffffffffffffffffffffffffffffff16610f22846104cd565b73ffffffffffffffffffffffffffffffffffffffff16145b91505092915050565b8273ffffffffffffffffffffffffffffffffffffffff16610f63826106aa565b73ffffffffffffffffffffffffffffffffffffffff1614610fb9576040517f08c379a0000000000000000000000000000000000000000000000000000000008152600401610fb0906127d7565b60405180910390fd5b600073ffffffffffffffffffffffffffffffffffffffff168273ffffffffffffffffffffffffffffffffffffffff1603611028576040517f08c379a000000000000000000000000000000000000000000000000000000000815260040161101f90612869565b60405180910390fd5b61103583838360016117a8565b8273ffffffffffffffffffffffffffffffffffffffff16611055826106aa565b73ffffffffffffffffffffffffffffffffffffffff16146110ab576040517f08c379a00000000000000000000000000000000000000000000000000000000081526004016110a2906127d7565b60405180910390fd5b6004600082815260200190815260200160002060006101000a81549073ffffffffffffffffffffffffffffffffffffffff02191690556001600360008573ffffffffffffffffffffffffffffffffffffffff1673ffffffffffffffffffffffffffffffffffffffff168152602001908152602001600020600082825403925050819055506001600360008473ffffffffffffffffffffffffffffffffffffffff1673ffffffffffffffffffffffffffffffffffffffff16815260200190815260200160002060008282540192505081905550816002600083815260200190815260200160002060006101000a81548173ffffffffffffffffffffffffffffffffffffffff021916908373ffffffffffffffffffffffffffffffffffffffff160217905550808273ffffffffffffffffffffffffffffffffffffffff168473ffffffffffffffffffffffffffffffffffffffff167fddf252ad1be2c89b69c2b068fc378daa952ba7f163c4a11628f55a4df523b3ef60405160405180910390a461123783838360016118ce565b505050565b60006002600083815260200190815260200160002060009054906101000a900473ffffffffffffffffffffffffffffffffffffffff169050919050565b8173ffffffffffffffffffffffffffffffffffffffff168373ffffffffffffffffffffffffffffffffffffffff16036112e7576040517f08c379a00000000000000000000000000000000000000000000000000000000081526004016112de906128d5565b60405180910390fd5b80600560008573ffffffffffffffffffffffffffffffffffffffff1673ffffffffffffffffffffffffffffffffffffffff16815260200190815260200160002060008473ffffffffffffffffffffffffffffffffffffffff1673ffffffffffffffffffffffffffffffffffffffff16815260200190815260200160002060006101000a81548160ff0219169083151502179055508173ffffffffffffffffffffffffffffffffffffffff168373ffffffffffffffffffffffffffffffffffffffff167f17307eab39ab6107e8899845ad3d59bd9653f200f220920489ca2b5937696c31836040516113d89190611ca8565b60405180910390a3505050565b6113f0848484610f43565b6113fc848484846118d4565b61143b576040517f08c379a000000000000000000000000000000000000000000000000000000000815260040161143290612967565b60405180910390fd5b50505050565b606060405180602001604052806000815250905090565b60606000600161146784611a5b565b01905060008167ffffffffffffffff811115611486576114856120f1565b5b6040519080825280601f01601f1916602001820160405280156114b85781602001600182028036833780820191505090505b509050600082602001820190505b60011561151b578080600190039150507f3031323334353637383961626364656600000000000000000000000000000000600a86061a8153600a858161150f5761150e612987565b5b049450600085036114c6575b819350505050919050565b600081600001549050919050565b600073ffffffffffffffffffffffffffffffffffffffff168273ffffffffffffffffffffffffffffffffffffffff16036115a3576040517f08c379a000000000000000000000000000000000000000000000000000000000815260040161159a90612a02565b60405180910390fd5b6115ac81611767565b156115ec576040517f08c379a00000000000000000000000000000000000000000000000000000000081526004016115e390612a6e565b60405180910390fd5b6115fa6000838360016117a8565b61160381611767565b15611643576040517f08c379a000000000000000000000000000000000000000000000000000000000815260040161163a90612a6e565b60405180910390fd5b6001600360008473ffffffffffffffffffffffffffffffffffffffff1673ffffffffffffffffffffffffffffffffffffffff16815260200190815260200160002060008282540192505081905550816002600083815260200190815260200160002060006101000a81548173ffffffffffffffffffffffffffffffffffffffff021916908373ffffffffffffffffffffffffffffffffffffffff160217905550808273ffffffffffffffffffffffffffffffffffffffff16600073ffffffffffffffffffffffffffffffffffffffff167fddf252ad1be2c89b69c2b068fc378daa952ba7f163c4a11628f55a4df523b3ef60405160405180910390a461174d6000838360016118ce565b5050565b6001816000016000828254019250508190555050565b60008073ffffffffffffffffffffffffffffffffffffffff166117898361123c565b73ffffffffffffffffffffffffffffffffffffffff1614159050919050565b60018111156118c857600073ffffffffffffffffffffffffffffffffffffffff168473ffffffffffffffffffffffffffffffffffffffff161461183c5780600360008673ffffffffffffffffffffffffffffffffffffffff1673ffffffffffffffffffffffffffffffffffffffff16815260200190815260200160002060008282546118349190612a8e565b925050819055505b600073ffffffffffffffffffffffffffffffffffffffff168373ffffffffffffffffffffffffffffffffffffffff16146118c75780600360008573ffffffffffffffffffffffffffffffffffffffff1673ffffffffffffffffffffffffffffffffffffffff16815260200190815260200160002060008282546118bf9190612ac2565b925050819055505b5b50505050565b50505050565b60006118f58473ffffffffffffffffffffffffffffffffffffffff16611bae565b15611a4e578373ffffffffffffffffffffffffffffffffffffffff1663150b7a0261191e610ded565b8786866040518563ffffffff1660e01b81526004016119409493929190612b4b565b6020604051808303816000875af192505050801561197c57506040513d601f19601f820116820180604052508101906119799190612bac565b60015b6119fe573d80600081146119ac576040519150601f19603f3d011682016040523d82523d6000602084013e6119b1565b606091505b5060008151036119f6576040517f08c379a00000000000000000000000000000000000000000000000000000000081526004016119ed90612967565b60405180910390fd5b805181602001fd5b63150b7a0260e01b7bffffffffffffffffffffffffffffffffffffffffffffffffffffffff1916817bffffffffffffffffffffffffffffffffffffffffffffffffffffffff191614915050611a53565b600190505b949350505050565b600080600090507a184f03e93ff9f4daa797ed6e38ed64bf6a1f0100000000000000008310611ab9577a184f03e93ff9f4daa797ed6e38ed64bf6a1f0100000000000000008381611aaf57611aae612987565b5b0492506040810190505b6d04ee2d6d415b85acef81000000008310611af6576d04ee2d6d415b85acef81000000008381611aec57611aeb612987565b5b0492506020810190505b662386f26fc100008310611b2557662386f26fc100008381611b1b57611b1a612987565b5b0492506010810190505b6305f5e1008310611b4e576305f5e1008381611b4457611b43612987565b5b0492506008810190505b6127108310611b73576127108381611b6957611b68612987565b5b0492506004810190505b60648310611b965760648381611b8c57611b8b612987565b5b0492506002810190505b600a8310611ba5576001810190505b80915050919050565b6000808273ffffffffffffffffffffffffffffffffffffffff163b119050919050565b604051806060016040528060008152602001600081526020016000151581525090565b6000604051905090565b600080fd5b600080fd5b60007fffffffff0000000000000000000000000000000000000000000000000000000082169050919050565b611c3d81611c08565b8114611c4857600080fd5b50565b600081359050611c5a81611c34565b92915050565b600060208284031215611c7657611c75611bfe565b5b6000611c8484828501611c4b565b91505092915050565b60008115159050919050565b611ca281611c8d565b82525050565b6000602082019050611cbd6000830184611c99565b92915050565b600081519050919050565b600082825260208201905092915050565b60005b83811015611cfd578082015181840152602081019050611ce2565b60008484015250505050565b6000601f19601f8301169050919050565b6000611d2582611cc3565b611d2f8185611cce565b9350611d3f818560208601611cdf565b611d4881611d09565b840191505092915050565b60006020820190508181036000830152611d6d8184611d1a565b905092915050565b6000819050919050565b611d8881611d75565b8114611d9357600080fd5b50565b600081359050611da581611d7f565b92915050565b600060208284031215611dc157611dc0611bfe565b5b6000611dcf84828501611d96565b91505092915050565b600073ffffffffffffffffffffffffffffffffffffffff82169050919050565b6000611e0382611dd8565b9050919050565b611e1381611df8565b82525050565b6000602082019050611e2e6000830184611e0a565b92915050565b611e3d81611df8565b8114611e4857600080fd5b50565b600081359050611e5a81611e34565b92915050565b60008060408385031215611e7757611e76611bfe565b5b6000611e8585828601611e4b565b9250506020611e9685828601611d96565b9150509250929050565b600080600060608486031215611eb957611eb8611bfe565b5b6000611ec786828701611e4b565b9350506020611ed886828701611e4b565b9250506040611ee986828701611d96565b9150509250925092565b600060208284031215611f0957611f08611bfe565b5b6000611f1784828501611e4b565b91505092915050565b611f2981611d75565b82525050565b6000602082019050611f446000830184611f20565b92915050565b611f5381611c8d565b8114611f5e57600080fd5b50565b600081359050611f7081611f4a565b92915050565b60008060408385031215611f8d57611f8c611bfe565b5b6000611f9b85828601611e4b565b9250506020611fac85828601611f61565b9150509250929050565b600081519050919050565b600082825260208201905092915050565b6000819050602082019050919050565b611feb81611d75565b82525050565b611ffa81611c8d565b82525050565b6060820160008201516120166000850182611fe2565b5060208201516120296020850182611fe2565b50604082015161203c6040850182611ff1565b50505050565b600061204e8383612000565b60608301905092915050565b6000602082019050919050565b600061207282611fb6565b61207c8185611fc1565b935061208783611fd2565b8060005b838110156120b857815161209f8882612042565b97506120aa8361205a565b92505060018101905061208b565b5085935050505092915050565b600060208201905081810360008301526120df8184612067565b905092915050565b600080fd5b600080fd5b7f4e487b7100000000000000000000000000000000000000000000000000000000600052604160045260246000fd5b61212982611d09565b810181811067ffffffffffffffff82111715612148576121476120f1565b5b80604052505050565b600061215b611bf4565b90506121678282612120565b919050565b600067ffffffffffffffff821115612187576121866120f1565b5b61219082611d09565b9050602081019050919050565b82818337600083830152505050565b60006121bf6121ba8461216c565b612151565b9050828152602081018484840111156121db576121da6120ec565b5b6121e684828561219d565b509392505050565b600082601f830112612203576122026120e7565b5b81356122138482602086016121ac565b91505092915050565b6000806000806080858703121561223657612235611bfe565b5b600061224487828801611e4b565b945050602061225587828801611e4b565b935050604061226687828801611d96565b925050606085013567ffffffffffffffff81111561228757612286611c03565b5b612293878288016121ee565b91505092959194509250565b600080604083850312156122b6576122b5611bfe565b5b60006122c485828601611e4b565b92505060206122d585828601611e4b565b9150509250929050565b7f4e487b7100000000000000000000000000000000000000000000000000000000600052602260045260246000fd5b6000600282049050600182168061232657607f821691505b602082108103612339576123386122df565b5b50919050565b7f4552433732313a20617070726f76616c20746f2063757272656e74206f776e6560008201527f7200000000000000000000000000000000000000000000000000000000000000602082015250565b600061239b602183611cce565b91506123a68261233f565b604082019050919050565b600060208201905081810360008301526123ca8161238e565b9050919050565b7f4552433732313a20617070726f76652063616c6c6572206973206e6f7420746f60008201527f6b656e206f776e6572206f7220617070726f76656420666f7220616c6c000000602082015250565b600061242d603d83611cce565b9150612438826123d1565b604082019050919050565b6000602082019050818103600083015261245c81612420565b9050919050565b7f4552433732313a2063616c6c6572206973206e6f7420746f6b656e206f776e6560008201527f72206f7220617070726f76656400000000000000000000000000000000000000602082015250565b60006124bf602d83611cce565b91506124ca82612463565b604082019050919050565b600060208201905081810360008301526124ee816124b2565b9050919050565b7f4552433732313a20696e76616c696420746f6b656e2049440000000000000000600082015250565b600061252b601883611cce565b9150612536826124f5565b602082019050919050565b6000602082019050818103600083015261255a8161251e565b9050919050565b7f4552433732313a2061646472657373207a65726f206973206e6f74206120766160008201527f6c6964206f776e65720000000000000000000000000000000000000000000000602082015250565b60006125bd602983611cce565b91506125c882612561565b604082019050919050565b600060208201905081810360008301526125ec816125b0565b9050919050565b7f4e487b7100000000000000000000000000000000000000000000000000000000600052603260045260246000fd5b7f4e487b7100000000000000000000000000000000000000000000000000000000600052601160045260246000fd5b600061265c82611d75565b91507fffffffffffffffffffffffffffffffffffffffffffffffffffffffffffffffff820361268e5761268d612622565b5b600182019050919050565b600081905092915050565b60006126af82611cc3565b6126b98185612699565b93506126c9818560208601611cdf565b80840191505092915050565b60006126e182856126a4565b91506126ed82846126a4565b91508190509392505050565b7f43616c6c6572206d757374206265204576656e7420636f6e7472616374000000600082015250565b600061272f601d83611cce565b915061273a826126f9565b602082019050919050565b6000602082019050818103600083015261275e81612722565b9050919050565b7f4552433732313a207472616e736665722066726f6d20696e636f72726563742060008201527f6f776e6572000000000000000000000000000000000000000000000000000000602082015250565b60006127c1602583611cce565b91506127cc82612765565b604082019050919050565b600060208201905081810360008301526127f0816127b4565b9050919050565b7f4552433732313a207472616e7366657220746f20746865207a65726f2061646460008201527f7265737300000000000000000000000000000000000000000000000000000000602082015250565b6000612853602483611cce565b915061285e826127f7565b604082019050919050565b6000602082019050818103600083015261288281612846565b9050919050565b7f4552433732313a20617070726f766520746f2063616c6c657200000000000000600082015250565b60006128bf601983611cce565b91506128ca82612889565b602082019050919050565b600060208201905081810360008301526128ee816128b2565b9050919050565b7f4552433732313a207472616e7366657220746f206e6f6e20455243373231526560008201527f63656976657220696d706c656d656e7465720000000000000000000000000000602082015250565b6000612951603283611cce565b915061295c826128f5565b604082019050919050565b6000602082019050818103600083015261298081612944565b9050919050565b7f4e487b7100000000000000000000000000000000000000000000000000000000600052601260045260246000fd5b7f4552433732313a206d696e7420746f20746865207a65726f2061646472657373600082015250565b60006129ec602083611cce565b91506129f7826129b6565b602082019050919050565b60006020820190508181036000830152612a1b816129df565b9050919050565b7f4552433732313a20746f6b656e20616c7265616479206d696e74656400000000600082015250565b6000612a58601c83611cce565b9150612a6382612a22565b602082019050919050565b60006020820190508181036000830152612a8781612a4b565b9050919050565b6000612a9982611d75565b9150612aa483611d75565b9250828203905081811115612abc57612abb612622565b5b92915050565b6000612acd82611d75565b9150612ad883611d75565b9250828201905080821115612af057612aef612622565b5b92915050565b600081519050919050565b600082825260208201905092915050565b6000612b1d82612af6565b612b278185612b01565b9350612b37818560208601611cdf565b612b4081611d09565b840191505092915050565b6000608082019050612b606000830187611e0a565b612b6d6020830186611e0a565b612b7a6040830185611f20565b8181036060830152612b8c8184612b12565b905095945050505050565b600081519050612ba681611c34565b92915050565b600060208284031215612bc257612bc1611bfe565b5b6000612bd084828501612b97565b9150509291505056fea2646970667358221220278cf3e91897c092840c421c8021a2ec8716395cb3ae1a29b542fcbc7316d54164736f6c63430008110033",
  "immutableReferences": {},
  "source": "// SPDX-License-Identifier: MIT\npragma solidity ^0.8.17;\n\nimport \"@openzeppelin/contracts/token/ERC721/ERC721.sol\";\nimport \"@openzeppelin/contracts/utils/Counters.sol\";\nimport \"@openzeppelin/contracts/access/Ownable.sol\";\n\n\ncontract Ticket is ERC721 {\n\nusing Counters for Counters.Counter;\n\n//Indirizzo del contratto Event\naddress public eventAddress;\n//Variabile che permette di gestire gli id dei ticket\nCounters.Counter private ticketIds;\n//per tenere traccia di tutte le info relative ai ticket\nmapping (uint256 => TicketInfo) tickets;\n//mapping di tutti i token posseduti da un indirizzo\nmapping (address => uint256[]) ownedTickets;\n\nconstructor(address _eventAddress) ERC721(\"Ticket\" , \"TCK\"){\n    eventAddress = _eventAddress;\n} \n\nstruct TicketInfo {\n    //Identifiativo del ticket\n    uint ticketId;\n    //Identificativo dell'evento al quale  associato il ticket\n    uint256 eventId;\n    //variabile che indica se il biglietto  stato utilizzato o no\n    bool used;\n}\n\nmodifier onlyEventContract() {\n    require(msg.sender == eventAddress, \"Caller must be Event contract\");\n    _;\n}\n\n//funzione per acquistare un ticket\nfunction buy(address buyer, uint256 eventId) external onlyEventContract returns (uint256) {\n    \n    uint256 newTicketId = ticketIds.current();\n\n    //Il mint pu fallire, quindi meglio fare prima il mint\n    _mint(buyer, newTicketId);\n    \n    //Incremento l'id del biglietto \n    ticketIds.increment();\n    //lo inserisco all'interno della lista che mi servir per tenere traccia \n    tickets[newTicketId] = TicketInfo(newTicketId ,eventId, false);\n\n    //Lo inserisco tra quelli posseduti da un indirizzo\n    ownedTickets[buyer].push(newTicketId);\n\n    return newTicketId;\n\n}\n\nfunction getAllMyTickets() public view returns (TicketInfo[] memory){\n\n    uint256[] memory allTicketsId;\n\n    allTicketsId = ownedTickets[msg.sender];\n\n    TicketInfo[] memory toReturnTickets = new TicketInfo[](allTicketsId.length);\n\n    for(uint i = 0; i < allTicketsId.length; i++) {\n        toReturnTickets[i]  = tickets[allTicketsId[i]];\n    }\n\n    return toReturnTickets;\n\n}\n\n}\n",
  "sourcePath": "/home/gerardo/Scrivania/DeEvent/contracts/Ticket.sol",
  "compiler": {
    "name": "solc",
    "version": "0.8.17+commit.8df45f5f.Emscripten.clang"
  },
  "schemaVersion": "3.4.10",
  "updatedAt": "2023-01-09T15:26:33.067Z",
  "networkType": "ethereum",
  "devdoc": {
    "kind": "dev",
    "methods": {
      "approve(address,uint256)": {
        "details": "See {IERC721-approve}."
      },
      "balanceOf(address)": {
        "details": "See {IERC721-balanceOf}."
      },
      "getApproved(uint256)": {
        "details": "See {IERC721-getApproved}."
      },
      "isApprovedForAll(address,address)": {
        "details": "See {IERC721-isApprovedForAll}."
      },
      "name()": {
        "details": "See {IERC721Metadata-name}."
      },
      "ownerOf(uint256)": {
        "details": "See {IERC721-ownerOf}."
      },
      "safeTransferFrom(address,address,uint256)": {
        "details": "See {IERC721-safeTransferFrom}."
      },
      "safeTransferFrom(address,address,uint256,bytes)": {
        "details": "See {IERC721-safeTransferFrom}."
      },
      "setApprovalForAll(address,bool)": {
        "details": "See {IERC721-setApprovalForAll}."
      },
      "supportsInterface(bytes4)": {
        "details": "See {IERC165-supportsInterface}."
      },
      "symbol()": {
        "details": "See {IERC721Metadata-symbol}."
      },
      "tokenURI(uint256)": {
        "details": "See {IERC721Metadata-tokenURI}."
      },
      "transferFrom(address,address,uint256)": {
        "details": "See {IERC721-transferFrom}."
      }
    },
    "version": 1
  },
  "userdoc": {
    "kind": "user",
    "methods": {},
    "version": 1
  }
}